{
  "contractName": "SampleRecipientSuccess",
  "abi": [
    {
      "constant": true,
      "inputs": [],
      "name": "value",
      "outputs": [
        {
          "name": "",
          "type": "uint256"
        }
      ],
      "payable": false,
      "stateMutability": "view",
      "type": "function"
    },
    {
      "constant": true,
      "inputs": [],
      "name": "tokenContract",
      "outputs": [
        {
          "name": "",
          "type": "address"
        }
      ],
      "payable": false,
      "stateMutability": "view",
      "type": "function"
    },
    {
      "constant": true,
      "inputs": [],
      "name": "extraData",
      "outputs": [
        {
          "name": "",
          "type": "bytes"
        }
      ],
      "payable": false,
      "stateMutability": "view",
      "type": "function"
    },
    {
      "constant": false,
      "inputs": [
        {
          "name": "_from",
          "type": "address"
        },
        {
          "name": "_value",
          "type": "uint256"
        },
        {
          "name": "_tokenContract",
          "type": "address"
        },
        {
          "name": "_extraData",
          "type": "bytes"
        }
      ],
      "name": "receiveApproval",
      "outputs": [],
      "payable": false,
      "stateMutability": "nonpayable",
      "type": "function"
    },
    {
      "constant": true,
      "inputs": [],
      "name": "from",
      "outputs": [
        {
          "name": "",
          "type": "address"
        }
      ],
      "payable": false,
      "stateMutability": "view",
      "type": "function"
    },
    {
      "anonymous": false,
      "inputs": [
        {
          "indexed": false,
          "name": "_value",
          "type": "uint256"
        }
      ],
      "name": "ReceivedApproval",
      "type": "event"
    }
  ],
  "bytecode": "0x6060604052341561000f57600080fd5b6105138061001e6000396000f30060606040526004361061006d576000357c0100000000000000000000000000000000000000000000000000000000900463ffffffff1680633fa4f2451461007257806355a373d61461009b578063609d3334146100f05780638f4ffcb11461017e578063d5ce338914610222575b600080fd5b341561007d57600080fd5b610085610277565b6040518082815260200191505060405180910390f35b34156100a657600080fd5b6100ae61027d565b604051808273ffffffffffffffffffffffffffffffffffffffff1673ffffffffffffffffffffffffffffffffffffffff16815260200191505060405180910390f35b34156100fb57600080fd5b6101036102a3565b6040518080602001828103825283818151815260200191508051906020019080838360005b83811015610143578082015181840152602081019050610128565b50505050905090810190601f1680156101705780820380516001836020036101000a031916815260200191505b509250505060405180910390f35b341561018957600080fd5b610220600480803573ffffffffffffffffffffffffffffffffffffffff1690602001909190803590602001909190803573ffffffffffffffffffffffffffffffffffffffff1690602001909190803590602001908201803590602001908080601f01602080910402602001604051908101604052809392919081815260200183838082843782019150505050505091905050610341565b005b341561022d57600080fd5b61023561041d565b604051808273ffffffffffffffffffffffffffffffffffffffff1673ffffffffffffffffffffffffffffffffffffffff16815260200191505060405180910390f35b60015481565b600260009054906101000a900473ffffffffffffffffffffffffffffffffffffffff1681565b60038054600181600116156101000203166002900480601f0160208091040260200160405190810160405280929190818152602001828054600181600116156101000203166002900480156103395780601f1061030e57610100808354040283529160200191610339565b820191906000526020600020905b81548152906001019060200180831161031c57829003601f168201915b505050505081565b836000806101000a81548173ffffffffffffffffffffffffffffffffffffffff021916908373ffffffffffffffffffffffffffffffffffffffff1602179055508260018190555081600260006101000a81548173ffffffffffffffffffffffffffffffffffffffff021916908373ffffffffffffffffffffffffffffffffffffffff16021790555080600390805190602001906103df929190610442565b507f2db24179b782aab7c5ab64add7f84d4f6c845d0779695371f29be1f658d043cd836040518082815260200191505060405180910390a150505050565b6000809054906101000a900473ffffffffffffffffffffffffffffffffffffffff1681565b828054600181600116156101000203166002900490600052602060002090601f016020900481019282601f1061048357805160ff19168380011785556104b1565b828001600101855582156104b1579182015b828111156104b0578251825591602001919060010190610495565b5b5090506104be91906104c2565b5090565b6104e491905b808211156104e05760008160009055506001016104c8565b5090565b905600a165627a7a72305820b7553f9c813ef9b1ca1181ee50fbc90bd15c18fa866524cddc22557b7a0610870029",
  "source": "/*\nThis is an example contract that helps test the functionality of the approveAndCall() functionality of HumanStandardToken.sol.\nThis one assumes successful receival of approval.\n*/\npragma solidity ^0.4.8;\n\ncontract SampleRecipientSuccess {\n  /* A Generic receiving function for contracts that accept tokens */\n  address public from;\n  uint256 public value;\n  address public tokenContract;\n  bytes public extraData;\n\n  event ReceivedApproval(uint256 _value);\n\n  function receiveApproval(address _from, uint256 _value, address _tokenContract, bytes _extraData)\n  public {\n    from = _from;\n    value = _value;\n    tokenContract = _tokenContract;\n    extraData = _extraData;\n    ReceivedApproval(_value);\n  }\n}\n",
  "sourcePath": "/home/madog/Documents/proyectos/CYCLE/cycle/ethereum/references/Tokens/contracts/SampleRecipientSuccess.sol",
  "compiler": {
    "name": "solc",
    "version": "0.4.18+commit.9cf6e910.Emscripten.clang"
  },
  "schemaVersion": "1.0.1",
  "updatedAt": "2017-12-22T04:18:36.908Z"
}